:1000000000308A001B28000022308400831300087F
:10001000031918280130F800F701F70B0D28F80B29
:100020000C284A30F700F70B13281628800B0A28F3
:100030008A110A123C28840183131F30830583161A
:100040001F149F141F159F1107309C00003088005B
:10005000831288018801831606148312061C472820
:10006000A0012008083C031C472801308807023003
:10007000A1009630A2000428A10B39280808093CE9
:10008000031D45288808031D0030A00A31282B28AD
:0200900063000B
:02400E00713F00
:00000001FF
;PIC16F877A
;CRC=6B6D  CREATED="19-Jun-13 20:24"
