:1000000000308A0012280000243084008313000886
:1000100003191128A530F700F70B0C280000800BFE
:100020000A280800840183131F30830583161F14D8
:100030009F141F159F1107309C00FF308312A200F0
:1000400000308316880087008312A2008801870190
:10005000831606148312061C5A28A1012108093CA4
:10006000031C5828A0012008083C031C4728013025
:1000700088070230A3009630A4000420A30B3B287D
:100080000808093C031D45288801A00A33282108D7
:10009000093C031D4D2801308702013087070230DB
:1000A000A3009630A4000420A30B5128A10A2E28F7
:0800B000880187012828630084
:02400E00711F20
:00000001FF
;PIC16F877A
;CRC=7192  CREATED="19-Oct-13 19:12"
