:1000000000308A0019280000213084008313000882
:10001000031918280130F800F701F70B0D28F80B29
:100020000C284A30F700F70B13281628800B0A28F3
:100030000800840183131F30830583161F149F1447
:100040001F159F1107309C00FF308312A0008316FC
:1000500006148312061C742B2010200883168700B8
:1000600083120710A100A0102008831687008312B6
:100070008710210203183E2800303F280130A100DC
:10008000201120088316870083120711210203180C
:100090004B2800304C280130A100A0112008831605
:1000A000870083128711210203185828003059282D
:1000B0000130A10020122008831687008312071246
:1000C000210203186528003066280130A100A01223
:1000D00020088316870083128712210203187228D2
:1000E000003073280130A1002013200883168700F8
:1000F000831207172102031C0030C830A10004201E
:10010000201020088316870083120714A100A01076
:100110002008831687008312871021020318922873
:10012000003093280130A100201120088316870099
:1001300083120711210203189F280030A0280130E4
:10014000A100A011200883168700831287152102C1
:100150000318AC280030AD280130A100201220087F
:10016000831687008312071621020318B92800306E
:10017000BA280130A100A01220088316870083123C
:10018000871621020318C6280030C7280130A100B5
:100190002013200883168700831207172102031CEF
:1001A0000030C830A10004202010200883168700EA
:1001B00083120710A100A010200883168700831265
:1001C000871021020318E6280030E7280130A1003B
:1001D00020112008831687008312071521020318B7
:1001E000F3280030F4280130A100A0112008831664
:1001F000870083128711210203180029003001298A
:100200000130A100201220088316870083120712F4
:10021000210203180D2900300E290130A100A0127F
:1002200020088316870083128716210203181A29D3
:1002300000301B290130A1002013200883168700FD
:10024000831207132102031C0030C830A1000420D0
:10025000201020088316870083120710A100A01029
:1002600020088316870083128710210203183A2979
:1002700000303B290130A10020112008831687009F
:100280008312071121020318472900304829013041
:10029000A100A01120088316870083128711210274
:1002A00003185429003055290130A10020122008DC
:1002B0008316870083120716210203186129003074
:1002C00062290130A100A012200883168700831242
:1002D0008716210203186E2900306F290130A10012
:1002E0002013200883168700831207132102031CA2
:1002F0000030C830A1000420201020088316870099
:1003000083120714A100A01020088316870083120F
:100310008710210203188E2900308F290130A10097
:100320002011200883168700831207112102031869
:100330009B2900309C290130A100A01120088316C0
:1003400087008312871521020318A8290030A929E4
:100350000130A1002012200883168700831207169F
:1003600021020318B5290030B6290130A100A012DE
:100370002008831687008312871221020318C229DE
:100380000030C3290130A100201320088316870004
:10039000831207132102031C0030C830A10004207F
:1003A000201020088316870083120710A100A010D8
:1003B0002008831687008312871421020318E2297C
:1003C0000030E3290130A1002011200883168700A6
:1003D0008312071121020318EF290030F0290130A0
:1003E000A100A01120088316870083128711210223
:1003F0000318FC290030FD290130A100201220083B
:10040000831687008312071621020318092A003079
:100410000A2A0130A100A012200883168700831247
:10042000871221020318162A0030172A0130A10072
:100430002013200883168700831207132102031C50
:100440000030C830A1000420201020088316870047
:1004500083120710A100A0102008831687008312C2
:10046000871421020318362A0030372A0130A100F0
:100470002011200883168700831207112102031818
:10048000432A0030442A0130A100A011200883161D
:1004900087008312871121020318502A0030512A45
:1004A0000130A10020122008831687008312071252
:1004B000210203185D2A00305E2A0130A100A0123B
:1004C00020088316870083128712210203186A2AE4
:1004D00000306B2A0130A10020132008831687000A
:1004E000831207132102031C0030C830A10004202E
:1004F000201020088316870083120710A100A01087
:1005000020088316870083128710210203188A2A85
:1005100000308B2A0130A1002011200883168700AB
:100520008312071121020318972A0030982A0130FC
:10053000A100A011200883168700831287152102CD
:100540000318A42A0030A52A0130A1002012200897
:10055000831687008312071621020318B12A003080
:10056000B22A0130A100A01220088316870083124E
:10057000871621020318BE2A0030BF2A0130A100CD
:100580002013200883168700831207172102031CFB
:100590000030C830A10004202010200883168700F6
:1005A00083120710A100A010200883168700831271
:1005B000871021020318DE2A0030DF2A0130A10053
:1005C00020112008831687008312071121020318C7
:1005D000EB2A0030EC2A0130A100A011200883167C
:1005E00087008312871121020318F82A0030F92AA4
:1005F0000130A10020122008831687008312071201
:1006000021020318052B0030062B0130A100A01297
:100610002008831687008312871221020318122BE9
:100620000030132B0130A10020132008831687000F
:10063000831207132102031C0030C830A1000420DC
:10064000201020088316870083120710A100A01035
:100650002008831687008312871021020318322B8B
:100660000030332B0130A1002011200883168700B1
:1006700083120711210203183F2B0030402B013059
:10068000A100A01120088316870083128711210280
:1006900003184C2B00304D2B0130A10020122008F4
:1006A000831687008312071621020318592B003086
:1006B0005A2B0130A100A012200883168700831254
:1006C000871221020318662B0030672B0130A1002E
:1006D0002013200883168700831207132102031CAE
:0C06E0000030C830A1000420272863006F
:02400E00713F00
:00000001FF
;PIC16F877A
;CRC=EF0F  CREATED="04-oct-13 19:31"
